{
  "_format": "hh-sol-artifact-1",
  "contractName": "NftMarketplace",
  "sourceName": "contracts/NftMarketPlace.sol",
  "abi": [
    {
      "inputs": [],
      "name": "NftMarketplace__NotApprovedForMarketPlace",
      "type": "error"
    },
    {
      "inputs": [],
      "name": "NftMarketplace__PriceMustBeAboveZero",
      "type": "error"
    },
    {
      "anonymous": false,
      "inputs": [
        {
          "indexed": true,
          "internalType": "address",
          "name": "seller",
          "type": "address"
        },
        {
          "indexed": true,
          "internalType": "address",
          "name": "nftAddress",
          "type": "address"
        },
        {
          "indexed": true,
          "internalType": "uint256",
          "name": "tokenId",
          "type": "uint256"
        },
        {
          "indexed": false,
          "internalType": "uint256",
          "name": "price",
          "type": "uint256"
        }
      ],
      "name": "ItemListed",
      "type": "event"
    },
    {
      "inputs": [
        {
          "internalType": "address",
          "name": "nftAddress",
          "type": "address"
        },
        {
          "internalType": "uint256",
          "name": "tokenId",
          "type": "uint256"
        },
        {
          "internalType": "uint256",
          "name": "price",
          "type": "uint256"
        }
      ],
      "name": "listItem",
      "outputs": [],
      "stateMutability": "nonpayable",
      "type": "function"
    }
  ],
  "bytecode": "0x608060405234801561001057600080fd5b50610440806100206000396000f3fe608060405234801561001057600080fd5b506004361061002b5760003560e01c806389bfd38f14610030575b600080fd5b61004a6004803603810190610045919061031e565b61004c565b005b60008111610086576040517f096d7ecf00000000000000000000000000000000000000000000000000000000815260040160405180910390fd5b60008390503073ffffffffffffffffffffffffffffffffffffffff168173ffffffffffffffffffffffffffffffffffffffff1663081812fc856040518263ffffffff1660e01b81526004016100db9190610380565b60206040518083038186803b1580156100f357600080fd5b505afa158015610107573d6000803e3d6000fd5b505050506040513d601f19601f8201168201806040525081019061012b91906102f1565b73ffffffffffffffffffffffffffffffffffffffff1614610178576040517fcaa26a2c00000000000000000000000000000000000000000000000000000000815260040160405180910390fd5b60405180604001604052808381526020013373ffffffffffffffffffffffffffffffffffffffff168152506000808673ffffffffffffffffffffffffffffffffffffffff1673ffffffffffffffffffffffffffffffffffffffff16815260200190815260200160002060008581526020019081526020016000206000820151816000015560208201518160010160006101000a81548173ffffffffffffffffffffffffffffffffffffffff021916908373ffffffffffffffffffffffffffffffffffffffff160217905550905050828473ffffffffffffffffffffffffffffffffffffffff163373ffffffffffffffffffffffffffffffffffffffff167fd547e933094f12a9159076970143ebe73234e64480317844b0dcb36117116de4856040516102a49190610380565b60405180910390a450505050565b6000813590506102c1816103dc565b92915050565b6000815190506102d6816103dc565b92915050565b6000813590506102eb816103f3565b92915050565b600060208284031215610307576103066103d7565b5b6000610315848285016102c7565b91505092915050565b600080600060608486031215610337576103366103d7565b5b6000610345868287016102b2565b9350506020610356868287016102dc565b9250506040610367868287016102dc565b9150509250925092565b61037a816103cd565b82525050565b60006020820190506103956000830184610371565b92915050565b60006103a6826103ad565b9050919050565b600073ffffffffffffffffffffffffffffffffffffffff82169050919050565b6000819050919050565b600080fd5b6103e58161039b565b81146103f057600080fd5b50565b6103fc816103cd565b811461040757600080fd5b5056fea26469706673582212202fb0a9019dae14d901013e76f38cc2e61accb8613cd7b6b23fc8eee255d635e664736f6c63430008070033",
  "linkReferences": {},
  "deployedLinkReferences": {}
}